:10000000F2C4000021C500001FC500001DC500008E
:100010001BC5000019C5000017C5000015C500006C
:1000200013C5000011C500000FC500000DC500007C
:100030000BC5000009C5000007C5000005C500008C
:1000400003C5000001C50000FFC40000FDC400009E
:10005000FBC40000F9C40000F7C400000C94100BAE
:10006000F3C400000C94EA090C94C109EDC400002B
:10007000EBC40000E9C40000E7C40000E5C40000D0
:10008000E3C40000E1C40000DFC40000DDC40000E0
:100090000C9498090C946F09D7C40000D5C40000D3
:1000A000D3C40000D1C40000CFC40000CDC4000000
:1000B000CBC40000C9C40000C7C40000C5C4000010
:1000C000C3C40000C1C40000BFC40000BDC4000020
:1000D000BBC40000B9C40000B7C40000B5C4000030
:1000E000B3C4000018171E17241730173C17CB177E
:1000F000481751175A17661772177E178F179B17D5
:10010000CB17A717B317BF17420A450A340A380A94
:100110003C0A7C0A490A4D0A530A570A5B0A610ADB
:10012000650A690A7C0A6F0A730A770A4128D44172
:10013000CF8300833041ED846403128141E88385DD
:10014000017941CB85392C00340241F7812041EA05
:1001500082000041C0812641C1811141C582353EE6
:1001600041C781BE41B182001B41F2810841268115
:100170000141E08F1F1A180A0F064587320A07024D
:1001800007050041E18F0025270510093A784D0544
:10019000180D383A1F41B6840A82270041B78107FB
:1001A000413A8155413681E8412A82000082013F6F
:1001B000412B8200008200EF4111FCFC4129D4FF59
:1001C000FF00002100240027002A002D003000330A
:1001D0000001010000040107010A010102102020B2
:1001E000080810204010204080020102010804028B
:1001F0000101020408102040808040201008040201
:100200000180040201804020100804020108040259
:10021000010102040810204080010204081020405F
:100220008005050505070508080808020202020AFC
:100230000A08080404040401010101010101010389
:1002400003030303030303040707070C0C0C0C0C44
:100250000C0C0C0202020206060606060606060B37
:100260000B0B0B0B0B0B0B00000A0B02090C0D0EFA
:100270000807030401000000000000000000000067
:10028000000000000000000000000000000000006E
:10029000000000121110000000000000000000002B
:1002A0000000000000000000000000000043616C3E
:1002B0006962726174696F6E0043616C6962726138
:1002C00074696F6E00695752415020686F737420D3
:1002D0006C6962726172792067656E65726963200C
:1002E00064656D6F20737461727465640A002D2DEE
:1002F0002D2D2D2D2D2D2B2D2D2D2D2D2D2D2B2D32
:100300002D2D2D2D2D2D2B2D2D2D2D2D2B2D2D2D21
:100310002D2D2D2D2B2D2D2D2D2D2D2D2B2D2D2D11
:100320002D2D2B2D2D2D2D2D2D2D2B2D2D2D2D2D01
:100330002B2D2D2D2D2D2B2D2D2D2D2D0A002D2D41
:100340002D2D2D2D2D2D2B2D2D2D2D2D2D2D2B2DE1
:100350002D2D2D2D2D2D2B2D2D2D2D2D2B2D2D2DD1
:100360002D2D2D2D2B2D2D2D2D2D2D2D2B2D2D2DC1
:100370002D2D2B2D2D2D2D2D2D2D2B2D2D2D2D2DB1
:100380002B2D2D2D2D2D2B2D2D2D2D2D0A004465A2
:1003900076696365097C202041324450207C2041ED
:1003A00056524350207C20484650207C20484650DE
:1003B0004147207C202048494420207C204853503D
:1003C000207C204853504147207C20494150207CCC
:1003D0002053434F207C205350500A002D2D2D2DAB
:1003E0002D2D2D2D2B2D2D2D2D2D2D2D2B2D2D2D41
:1003F0002D2D2D2D2B2D2D2D2D2D2B2D2D2D2D2D31
:100400002D2D2B2D2D2D2D2D2D2D2B2D2D2D2D2D20
:100410002B2D2D2D2D2D2D2D2B2D2D2D2D2D2B2D12
:100420002D2D2D2D2B2D2D2D2D2D0A003D3D3D3D0E
:100430003D3D3D3D3D3D3D3D3D3D3D3D3D3D3D3DEC
:100440003D3D3D3D3D3D3D3D3D3D3D3D3D3D3D3DDC
:100450003D3D3D3D3D3D3D3D3D3D3D3D3D3D3D3DCC
:100460003D3D3D3D3D3D3D3D3D3D3D3D3D3D3D3DBC
:100470003D3D3D3D3D3D3D3D3D3D0A00343A204D35
:10048000616B65206D6F64756C6520756E64697352
:10049000636F76657261626C6520616E6420756E53
:1004A000636F6E6E65637461626C6520285345549A
:1004B00020425420504147452030290A00333A2039
:1004C0004D616B65206D6F64756C6520756E646938
:1004D00073636F76657261626C652C20627574203F
:1004E000636F6E6E65637461626C6520285345545A
:1004F00020425420504147452032290A00323A20F8
:100500004D616B65206D6F64756C65206469736304
:100510006F76657261626C6520616E6420636F6ED8
:100520006E65637461626C652028534554204254A3
:1005300020504147452033290A00313A20546F6743
:10054000676C6520726F756E642D726F62696E20C4
:100550006175746F63616C6C20616C676F72697434
:10056000686D206F6E206F72206F66660A00303AE9
:10057000205265736574206D6F64756C65202870FA
:10058000756C736573206957524150206D6F6475A7
:100590006C652052455345542070696E2068696728
:1005A0006820666F7220356D73290A003D3D3D3D20
:1005B0003D3D3D3D3D3D3D3D3D3D3D3D3D3D3D3D6B
:1005C0003D3D3D3D3D3D3D3D3D3D3D3D3D3D3D3D5B
:1005D0003D3D3D3D3D3D3D3D3D3D3D3D3D3D3D3D4B
:1005E0003D3D3D3D3D3D3D3D0A0069575241502056
:1005F00067656E657269632064656D6F206D656EF9
:10060000750A004552524F523A20436F756C642070
:100610006E6F7420636F6D6D756E696361746520B4
:1006200077697468206957524150206D6F64756C0A
:10063000650A0050656E64696E672063616C6C20AA
:1006400070726F6365737365640A00695752415035
:1006500020696E697469616C697A6174696F6E2072
:10066000636F6D706C6574650A0047657474696EBC
:10067000672061637469766520636F6E6E6563746D
:10068000696F6E206C6973742E2E2E0A0047657494
:1006900074696E672069575241502073657474699C
:1006A0006E67732E2E2E0A0054657374696E672070
:1006B000695752415020636F6D6D756E6963617447
:1006C000696F6E2E2E2E0A00000000000000000050
:1006D00030787830300030006C6C6C000000000026
:1006E0006C6CFE6CFE6C6C00307CC0780CF83000DA
:1006F00000C6CC183066C600386C3876DCCC760084
:100700006060C000000000001830606060301800B9
:10071000603018181830600000663CFF3C6600002E
:10072000003030FC3030000000000000007030600D
:10073000000000FC0000000000000000003030005D
:10074000060C183060C0800078CCDCFCECCC780063
:1007500030F030303030FC0078CC0C3860CCFC000D
:1007600078CC0C380CCC78001C3C6CCCFE0C0C000B
:10077000FCC0F80C0CCC78003860C0F8CCCC780009
:10078000FCCC0C183060600078CCCC78CCCC7800F5
:1007900078CCCC7C0C187000000030300030300079
:1007A0000000303000703060183060C060301800D9
:1007B0000000FC00FC0000006030180C18306000E5
:1007C00078CC0C18300030007CC6DEDEDEC078004D
:1007D0003078CCCCFCCCCC00FC66667C6666FC0039
:1007E0003C66C0C0C0663C00FC6C6666666CFC0083
:1007F000FE6268786862FE00FE6268786860F000F9
:100800003C66C0C0CE663E00CCCCCCFCCCCCCC0090
:1008100078303030303078001E0C0C0CCCCC7800A6
:10082000E6666C786C66E600F06060606266FE000A
:10083000C6EEFED6C6C6C600C6E6F6DECEC6C60004
:10084000386CC6C6C66C3800FC66667C6060F0001A
:1008500078CCCCCCDC781C00FC66667C786CE6003E
:1008600078CCE0381CCC7800FCB4303030307800E4
:10087000CCCCCCCCCCCCFC00CCCCCCCCCC78300010
:10088000C6C6C6D6FEEEC600C6C66C386CC6C60066
:10089000CCCCCC7830307800FECC983062C6FE00EC
:1008A0007860606060607800C06030180C060200FC
:1008B000781818181818780010386CC60000000056
:1008C00000000000000000FF3030180000000000B1
:1008D0000000780C7CCC7600E0607C666666BC002C
:1008E000000078CCC0CC78001C0C0C7CCCCC760002
:1008F000000078CCFCC07800386C60F06060F000DC
:10090000000076CCCC7C0CF8E0606C766666E60085
:100910003000703030307800180078181818D8700F
:10092000E060666C786CE600703030303030780013
:100930000000ECFED6C6C6000000F8CCCCCCCC0043
:10094000000078CCCCCC78000000DC66667C60F0DF
:10095000000076CCCC7C0C1E0000D86C6C60F000E3
:1009600000007CC0780CF80010307C303034180067
:100970000000CCCCCCCC76000000CCCCCC783000C5
:100980000000C6C6D6FE6C000000C66C386CC600FF
:100990000000CCCCCC7C0CF80000FC983064FC004F
:1009A0001C3030E030301C001818180018181800DF
:1009B000E030301C3030E00076DC00000000000049
:1009C00010386CC6C6C6FE000000220025002800B4
:1009D0002B002E0031003400020100000501080147
:1009E0000B01902A802A11241FBECFEFD1E2DEBF77
:1009F000CDBF00E00CBF17E0A0E0B2E0EEEAF4E605
:100A000000E00BBF02C007900D92AA31B107D9F7E1
:100A100029E0AAE1B7E001C01D92A233B207E1F7D5
:100A200014E0C2EFD4E000E006C021970109802F56
:100A3000FE010E94422BC13FD10780E00807A9F7C1
:100A40000E949B150C944632DBCA0895CF92DF9228
:100A5000EF92FF920F931F93CF93DF936C017A0174
:100A60008B01C0E0D0E0CE15DF0589F0D8016D9193
:100A70008D01D601ED91FC910190F081E02DC60130
:100A80001995892B11F47E0102C02196ECCFC70184
:100A9000DF91CF911F910F91FF90EF90DF90CF905A
:100AA0000895FC01A089B1898C91A689B78982FD3E
:100AB0000FC09C91818D8F5F8F73228D821749F0BB
:100AC000218DDF01A20FB11D5D969C93818F08954A
:100AD0008C910895FC01918D828D981761F0828D23
:100AE000DF01A80FB11D5D968C91928D9F5F9F7362
:100AF000928F90E008958FEF9FEF0895FC01918D04
:100B0000828D981731F0828DE80FF11D858D90E070
:100B100008958FEF9FEF0895FC01918D228D892F0D
:100B200090E0805C9F4F821B91098F7399270895F5
:100B300088E997E0F1DF21E0892B09F420E0822F9A
:100B4000089585E398E0E8DF21E0892B09F420E0AF
:100B5000822F0895FC01848DDF01A80FB11DA35AD7
:100B6000BF4F2C91848D90E001968F739927848FCD
:100B7000A689B7892C93A089B1898C9180648C93C4
:100B8000938D848D981306C00288F389E02D8081AF
:100B90008F7D80830895EF92FF920F931F93CF93E1
:100BA000DF93EC0181E0888F9B8D8C8D981305C0BD
:100BB000E889F989808185FD23C0F62E0B8D10E030
:100BC0000F5F1F4F0F731127E02E8C8DE8120BC0A3
:100BD0000FB607FCFACFE889F989808185FFF5CF48
:100BE000CE01B8DFF2CF8B8DFE01E80FF11DE35A85
:100BF000FF4FF0820B8FEA89FB898081806207C0FA
:100C0000EE89FF896083E889F98980818064808327
:100C100081E090E0DF91CF911F910F91FF90EF90D5
:100C20000895CF93DF93EC01888D8823C1F0EA8982
:100C3000FB89808185FD05C0A889B9898C9186FDD5
:100C40000EC00FB607FCF5CF808185FFF2CFA889D3
:100C5000B9898C9185FFEDCFCE017CDFE8CFDF91A4
:100C6000CF91089580E090E0892B19F06ADF81111F
:100C700020C080E090E0892B19F05ADF81111CC060
:100C800080E090E0892B41F080E090E0892B21F01A
:100C90000E940000811113C080E090E0892BA1F038
:100CA00080E090E0892B81F00E94000081110AC051
:100CB00008950E940000DDCF0E940000E1CF0E9455
:100CC0000000EACF0C94000008953FB7F89480919B
:100CD000900790919107A0919207B091930726B544
:100CE000A89B05C02F3F19F00196A11DB11D3FBF64
:100CF000BA2FA92F982F8827820F911DA11DB11DF2
:100D0000BC01CD0142E0660F771F881F991F4A95ED
:100D1000D1F70895E2E0F1E0808180618083089559
:100D2000CF92EF92FF920F931F93CF93DF93EC013B
:100D3000262F6A3081F48EAD9FAD9BAF8AAF2CA970
:100D40002F778CAD9DAD38E0239F800D911D112430
:100D50009DAF8CAF47C0862F8B7F893009F442C08E
:100D60006AAD7BAD203219F461157105D9F1E881C6
:100D7000F981E8ACF9AC0EA91FA94CAD5DAD0088B6
:100D8000F189E02DCCA8CE011995BC019BAF8AAFAB
:100D90008DA9882339F12CA92F77822F90E048EF75
:100DA0004203900111244E815F81420F531F461769
:100DB0005707C4F44EAD5FAD5BAF4AAF43E0880F59
:100DC000991F4A95E1F74CAD5DAD840F951F9DAF1E
:100DD0008CAF48855985240F351F2817390714F41F
:100DE0001DAE1CAE81E090E0DF91CF911F910F917D
:100DF000FF90EF90CF900895CF92EF92FF920F93D4
:100E00001F93DC01ED91FC910684F785E02D199587
:100E10001F910F91FF90EF90CF9008952F923F92E6
:100E20004F925F926F927F928F929F92AF92BF92FA
:100E3000CF92DF92EF92FF920F931F93CF93DF93A6
:100E400000D0CDB7DEB79B838A83480188E02802B3
:100E500090011124D901A853BA4F5D01BC2DBF7771
:100E6000CB2EEA81FB8186819781F1E0FB1708F4A4
:100E700063C06B0128E0C20ED11C8C159D050CF4DB
:100E80006EC0AA81BB811896ED91FC9119979A01C9
:100E9000285F3F4FE217F3070CF461C0AA81BB81C2
:100EA000ED91FC9111978A01095F1F4F9B01295F0A
:100EB0003F4F0680F781E02DCD011995AA81BB81B6
:100EC000ED91FC9111970084F185E02DCD011995EC
:100ED0008501085F1F4FF5014490FFEFAF1ABF0A6D
:100EE00098E0692E712C20E8522EAA81BB81ED91E9
:100EF000FC911197852D84210284F385E02D8823B0
:100F000019F0B401CD0103C0B7018A819B81199505
:100F10005694B1E06B1A710841F7A016B106D9F6E4
:100F2000AA81BB81ED91FC9111970484F585E02D98
:100F3000CD011995C60176C0B8E0CB9E8001112481
:100F40003B01600E711E861597054CF0040F151FAE
:100F5000EA81FB81208531852017310714F4019641
:100F600061C0AA81BB81ED91FC91119701501109DB
:100F70000680F781E02D930121503109CD011995AB
:100F8000AA81BB81ED91FC9111970084F185E02D40
:100F9000CD0119952501B8E04B0E511CF5012490A7
:100FA000FFEFAF1ABF0A3C2C08E010E080E8D82E13
:100FB0008D2D82212C2DA1F0AA81BB81ED91FC9178
:100FC00011970284F385E02DB401CD012983199591
:100FD0002981215089F7D6940150110949F710C091
:100FE000AA81BB81ED91FC9111970284F385E02DDC
:100FF000B701CD01298319952981215089F7EBCFBC
:101000003A943110D1CFA414B50409F0C7CFAA8106
:10101000BB81ED91FC9111970484F585E02DCD0104
:101020001995C3010F900F900F90DF91CF911F91F1
:101030000F91FF90EF90DF90CF90BF90AF909F9077
:101040008F907F906F905F904F903F902F9008957A
:101050000E94812D0F931F93CF93DF938C01EB019F
:10106000FC01808191810097B1F0688179816115DF
:10107000710579F0428153812C813D8142175307DC
:1010800040F00E94A22D8C819D81F801958384837C
:1010900013C00E94052C88819981F8019183808377
:1010A0008A819B81938382838C819D8195838483B4
:1010B000198218821B821A821D821C82DF91CF91B5
:1010C0001F910F9108950F931F93CF93DF93EC011E
:1010D00088819981009729F02A813B81261737075B
:1010E00088F48B016F5F7F4F0E949D2C009761F009
:1010F000998388831B830A832C813D81232B11F4E0
:10110000FC01108281E001C080E0DF91CF911F914E
:101110000F910895EF92FF920F931F93CF93DF9358
:10112000FC01248135816115710511F480E018C03E
:1011300041155105A1F07B01EC018A01020F131F3B
:10114000B801C1DF882391F3288139818C819D8189
:10115000B701820F931F0E94A22D1D830C8381E093
:10116000DF91CF911F910F91FF90EF900895CF9352
:10117000DF93EC0188819981009711F00E94052C82
:10118000198218821D821C821B821A82DF91CF91E4
:101190000895EF92FF920F931F93CF93DF93EC018B
:1011A0007B018A01BA018FDF811103C0CE01DFDF2D
:1011B00007C01D830C83B701888199810E94A22DED
:1011C000CE01DF91CF911F910F91FF90EF90089585
:1011D000CF93DF93EC016115710551F0FB01019094
:1011E0000020E9F73197AF01461B570BD2DF01C052
:1011F000BEDFCE01DF91CF910895CF93DF93EC0155
:10120000FB018617970751F06081718161157105A7
:1012100021F044815581BDDF01C0A9DFCE01DF91FE
:10122000CF910895FC01808191810C94052CFC01E3
:101230001182108213821282158214826115710547
:1012400049F0FB0101900020E9F73197AF01461BFF
:10125000570B9FCF0895BF92CF92DF92EF92FF92EC
:101260000F931F93CF93DF937C016B018A01E901F8
:101270002417350720F4812F8901C42FD82F61E866
:1012800073E0C701D4DFD60114968D919C91159718
:1012900008171907C8F48C179D0708F4EC01D6014C
:1012A000ED91FC911197EC0FFD1FB08010824D91D4
:1012B0005C91BA01600F711FC7018ADFD601ED9101
:1012C000FC91EC0FFD1FB082C701DF91CF911F9100
:1012D0000F91FF90EF90DF90CF90BF9008951F92F5
:1012E0000F920FB60F9211240BB60F922F933F93CC
:1012F0004F935F936F937F938F939F93AF93BF931E
:10130000EF93FF9388E997E025DCFF91EF91BF9180
:10131000AF919F918F917F916F915F914F913F918D
:101320002F910F900BBE0F900FBE0F901F9018952E
:101330001F920F920FB60F9211240BB60F922F939C
:101340003F934F935F936F937F938F939F93AF934D
:10135000BF93EF93FF9388E997E0A3DBFF91EF91B1
:10136000BF91AF919F918F917F916F915F914F91BD
:101370003F912F910F900BBE0F900FBE0F901F90BB
:1013800018951F920F920FB60F9211240BB60F9261
:101390002F933F934F935F936F937F938F939F937D
:1013A000AF93BF93EF93FF9385E398E0D3DBFF9177
:1013B000EF91BF91AF919F918F917F916F915F91CD
:1013C0004F913F912F910F900BBE0F900FBE0F903A
:1013D0001F9018951F920F920FB60F9211240BB603
:1013E0000F922F933F934F935F936F937F938F93BE
:1013F0009F93AF93BF93EF93FF9385E398E051DB07
:10140000FF91EF91BF91AF919F918F917F916F91DC
:101410005F914F913F912F910F900BBE0F900FBE98
:101420000F901F901895362F90E0FC01E959FD4F61
:101430004491FC01E552FE4F2491FC01EF5DFD4F0C
:101440009491992309F46BC0442309F455C050E0EA
:10145000FA013197E231F10508F04EC08827EC57C8
:10146000FF4F8F4F0C94422B809180008F7707C0E5
:10147000809180008F7D03C080918000877F809362
:1014800080003AC084B58F7702C084B58F7D84BD5B
:1014900033C08091B0008F7703C08091B0008F7D02
:1014A0008093B00029C0809190008F7707C0809111
:1014B00090008F7D03C080919000877F8093900083
:1014C0001BC08091A0008F7707C08091A0008F7D06
:1014D00003C08091A000877F8093A0000DC0809101
:1014E00020018F7707C0809120018F7D03C08091FC
:1014F0002001877F80932001E92FF0E0EE0FFF1F8E
:10150000E853F64FA591B4918FB7F894EC9131114F
:1015100003C020952E2301C02E2B2C938FBF08953E
:10152000CF93DF9390E0FC01E552FE4F2491FC0144
:10153000EF5DFD4F8491882361F190E0880F991F42
:10154000FC01EF53FE4FC591D491FC01E853F64FD7
:10155000A591B491611109C09FB7F8948881209535
:1015600082238883EC912E230BC0623061F49FB7F5
:10157000F8943881822F809583238883EC912E2BD9
:101580002C939FBF06C08FB7F894E8812E2B288339
:101590008FBFDF91CF9108958F929F92AF92BF92AC
:1015A000CF92DF92EF92FF926B017C018EDB4B01B9
:1015B0005C01C114D104E104F104E9F086DBDC0133
:1015C000CB0188199909AA09BB09883E9340A10556
:1015D000B10578F321E0C21AD108E108F10888EEDC
:1015E000880E83E0981EA11CB11CC114D104E10433
:1015F000F10421F7DECFFF90EF90DF90CF90BF9006
:10160000AF909F908F9008952FB7F89460918C07BA
:1016100070918D0780918E0790918F072FBF08954D
:101620001F920F920FB60F9211242F933F938F9317
:101630009F93AF93BF9380918C0790918D07A0915A
:101640008E07B0918F0730918B0723E0230F2D3742
:1016500020F40196A11DB11D05C026E8230F0296B6
:10166000A11DB11D20938B0780938C0790938D074C
:10167000A0938E07B0938F07809190079091910768
:10168000A0919207B09193070196A11DB11D80937F
:10169000900790939107A0939207B0939307BF91FF
:1016A000AF919F918F913F912F910F900FBE0F900F
:1016B0001F9018959CB5282F23709C7F922B9CBD62
:1016C0002DB582FB992790F9822F8E7F892B8DBDB6
:1016D00008958EBD00000DB407FEFDCF8EB50895B0
:1016E000CF93DF93862FC2E0D1E098819F7E9883CD
:1016F0002A9A29989CB59F7B9CBD299A9CB5906499
:101700009CBDE7DF888180618883DF91CF91089558
:101710000F931F93CF93DF931F92CDB7DEB7872F21
:1017200002E011E0F80190819F7E90832A9A299827
:101730009CB59F7B9CBD299A9CB590649CBD698398
:10174000C8DF2A9A29989CB59F7B9CBD299A9CB595
:1017500090649CBD6981862FBCDFF8018081806127
:1017600080830F90DF91CF911F910F910895CF93B8
:10177000DF93862FC2E0D1E098819F7E98832A98DC
:1017800029989CB59F7B9CBD299A9CB590649CBD73
:10179000A0DF888180618883DF91CF9108956CE21A
:1017A000E6DFE2E0F1E080818F7E80830895AF92F2
:1017B000BF92CF92DF92EF92FF920F931F93CF933E
:1017C000DF93EC015B017A0169016AE2D0DFB501C8
:1017D000CE019EDFB601CE019BDF6BE2CE01C7DFFB
:1017E000B701CE0195DFB801CE01DF91CF911F91F6
:1017F0000F91FF90EF90DF90CF90BF90AF9088CF88
:101800000F931F93CF93DF93EC016930710519F0AB
:101810006A35710571F48AE590E09D838C8380EFD1
:1018200090E09F838E8380E491E09987888718E415
:1018300034C06231710519F0643B710571F484EBB9
:1018400090E09D838C8380E491E09F838E8380EF82
:1018500090E09987888718E320C06B31710521F0EB
:101860007E7F6E30710571F48EE091E09D838C83F4
:1018700080EF90E09F838E8380E491E09987888752
:1018800018E80BC01D821C8280E491E09F838E8348
:1018900080EF90E09987888718EE66E3CE0167DFD6
:1018A000612FCE011DDFE881F9810885198501507E
:1018B00011092E813F81215031090680F781E02DE9
:1018C00040E050E060E070E0CE011995DF91CF91EB
:1018D0001F910F910895CF93DF931F92CDB7DEB77D
:1018E000872F2A9A29989CB59F7B9CBD299A9CB5E5
:1018F00090649CBD6983EDDE2A9A29989CB59F7BF4
:101900009CBD299A9CB590649CBD6981862F0F90DF
:10191000DF91CF91DECE8F929F92AF92BF92CF9206
:10192000DF92EF92FF920F931F93CF93DF93EC011F
:10193000690158012E813F81621773071CF0B901BC
:101940006150710988859985481759071CF0AC01C9
:1019500041505109FB01EC0DFD1DE217F3071CF08E
:101960006901C61AD70A9A012A0D3B1D28173907A3
:101970001CF05C01A41AB50AE881F9818A010A0DFC
:101980001B1D015011099B012C0D3D1D21503109DA
:101990000680F781E02DCE011995E881F981008458
:1019A000F185E02DCE0119959501D6010E944A2BB3
:1019B0004B015C01E881F98181149104A104B10417
:1019C00061F00284F385E02DB701CE01199581E025
:1019D000881A9108A108B108EDCF0484F585E02D9F
:1019E000CE01DF91CF911F910F91FF90EF90DF908B
:1019F000CF90BF90AF909F908F901994EF92FF92ED
:101A00000F931F93611103C025E030E002C026E070
:101A100030E0220F331FF901EE5DFD4FE080F180D1
:101A20000CE310E025E530E040EA50E0BC018AEE2E
:101A300098E071DF1F910F91FF90EF900895AC0136
:101A400088E997E003C828C40F931F93CF93DF93CF
:101A5000CDB7DEB72C970FB6F894DEBF0FBECDBF63
:101A6000BC01CE010196E3DB2D813E81235031097B
:101A700041E350E0BE016F5F7F4FCE010796EBDB85
:101A8000BE01695F7F4FCE010196E4DACE01079671
:101A9000C9DB6DEA76E0CE010796C9DB4D815E8138
:101AA00069817A81CE01079635DB811103C0CE01B1
:101AB00007965DDB0B851C850F5F1F4FB801CE01BC
:101AC000079601DB882379F12F8138858B859C85EA
:101AD00061EC76E0820F931F0E94A22D1C870B877A
:101AE000CE010796F7D3CE0107969CDB8DDD609380
:101AF0001D0770931E0780931F0790932007BE0158
:101B00006F5F7F4F88ED98E078DBCE0101968ADB2E
:101B10002C960FB6F894DEBF0FBECDBFDF91CF91EC
:101B20001F910F910895CE01079621DBD9CFCF9356
:101B3000DF93CDB7DEB72C970FB6F894DEBF0FBE9C
:101B4000CDBFBC01CE01019672DB2D813E812350B9
:101B5000310940E350E0BE016F5F7F4FCE01079631
:101B60007ADBBE01695F7F4FCE01019673DACE0149
:101B7000079658DBBE016F5F7F4F84EE98E03DDB38
:101B800063EC76E0CE01079652DB4D815E81698180
:101B90007A81CE010796BEDA811103C0CE01079685
:101BA000E6DACE01079696D3CE0107963BDB2CDD15
:101BB00060931D0770931E0780931F079093200763
:101BC000CE0101962FDB2C960FB6F894DEBF0FBE28
:101BD000CDBFDF91CF9108958BEC96E06FC38DED73
:101BE00096E06CC3EF92FF920F931F93CF93DF9316
:101BF000EC018E819F81681779075CF5888599854E
:101C00004817590734F57901E881F9810680F78191
:101C1000E02D8A019B01CE011995E881F9810084AC
:101C2000F185E02DCE011995E881F9810284F385D3
:101C3000E02DB701CE011995E881F9810484F5857D
:101C4000E02DCE01DF91CF911F910F91FF90EF908A
:101C50001994DF91CF911F910F91FF90EF9008950C
:101C60002F923F924F925F926F927F928F929F92AC
:101C7000AF92BF92CF92DF92EF92FF920F931F939A
:101C8000CF93DF93CDB7DEB728970FB6F894DEBFBA
:101C90000FBECDBF4C016B0158874F8359016217AE
:101CA0007307A1F40417150744F4042715274027E8
:101CB000512758874F83042715272F813885021B0A
:101CC000130B0F5F1F4F21E030E015C04F81588587
:101CD00040175107B1F42617370734F4A626B72664
:101CE000CA24DB24AC24BD2495012C193D092F5FA7
:101CF0003F4F01E010E04F815885B601C4010BDE73
:101D00009DC0FC01268137816217730724F06901A9
:101D1000F1E0CF1AD108F401808591854F81588573
:101D20004817590724F0FC013197F887EF83A21672
:101D3000B30624F05901F1E0AF1AB10808171907EA
:101D40001CF08C010150110935016C187D08280127
:101D50002F813885421A530A77FE08C07194619426
:101D600071084FEF5FEF5A83498304C081E090E030
:101D70009A83898357FE08C0519441945108EFEF2C
:101D8000FFEFFC83EB8304C021E030E03C832B8336
:101D9000A301440F551F5E834D831201220C331C97
:101DA00097014F815885B601C4011CDF46145704C2
:101DB00014F5810106191709CA14DB0409F43EC0A1
:101DC00017FD0CC08F819885EB81FC818E0F9F1FC2
:101DD00098878F832D813E81021B130B49815A8185
:101DE000C40ED51E020D131D97014F815885B601F3
:101DF000C401F8DEE1CFAD80BE80A418B5088F81A4
:101E0000988580179107D1F0B7FC06C089819A8127
:101E1000C80ED91EA218B308EF81F8852B813C812A
:101E2000E20FF31FF887EF834D815E81A40EB51E8C
:101E30009701AF01B601C401D5DEE1CF28960FB6F8
:101E4000F894DEBF0FBECDBFDF91CF911F910F91F0
:101E5000FF90EF90DF90CF90BF90AF909F908F90CA
:101E60007F906F905F904F903F902F9008958F924A
:101E70009F92AF92BF92EF92FF920F931F93CF93D7
:101E8000DF93EC017B01E881F98108851985015018
:101E900011092E813F81215031090680F781E02D03
:101EA00040E050E060E070E01995E881F98100843D
:101EB000F185E02DCE011995AE81BF812885398548
:101EC0000E944A2B4B015C0183E0B694A79497943F
:101ED00087948A95D1F7E881F98181149104A1044E
:101EE000B10409F444C00284F385E02DB701CE01AA
:101EF0001995E881F9810284F385E02DB701CE01BF
:101F00001995E881F9810284F385E02DB701CE01AE
:101F10001995E881F9810284F385E02DB701CE019E
:101F20001995E881F9810284F385E02DB701CE018E
:101F30001995E881F9810284F385E02DB701CE017E
:101F40001995E881F9810284F385E02DB701CE016E
:101F50001995E881F9810284F385E02DB701CE015E
:101F6000199581E0881A9108A108B108B4CF0484BA
:101F7000F585E02DCE01DF91CF911F910F91FF905C
:101F8000EF90BF90AF909F908F901994CF93DF9375
:101F900000D0CDB7DEB7282F90E034E09595879537
:101FA0003A95E1F730E3380FEAE0F0E0BF010E9434
:101FB0002F2B47E0469F300D112439832F7030E3DB
:101FC000320F822F90E0BF010E942F2B469F300DD1
:101FD00011243A831B82E0912307F0912407CE015C
:101FE000019619950F900F900F90DF91CF91089562
:101FF000CF92DF92EF92FF920F931F93CF93DF93D5
:1020000020911A0730911B07232B09F488C0162F43
:10201000EC01E0919607F0919707309729F08091B5
:102020002507811101C0199545E050E060EF76E089
:10203000CE010E94A92D892B31F4809121078F5F59
:102040008093210713C0809125078F5F8093250718
:1020500044E050E066EF76E0CE010E94A92D892B86
:1020600029F4809122078F5F80932207E0919407E3
:10207000F0919507309751F0DE010D900020E9F7BF
:10208000CD010197BE018C1B9D0B1995133071F585
:10209000FE0101900020E9F731978F010C1B1D0B09
:1020A0006801B5E0CB0ED11CC6010E94702B7C01EB
:1020B0008FEBF70180838FEF8183812F8370828381
:1020C0000383A801BE01C70104960E94852DF70174
:1020D000E00FF11F1482E0911A07F0911B07B7017E
:1020E000C6011995C7010E94052C17C0DE010D908D
:1020F0000020E9F71197E0911A07F0911B07BE0144
:10210000CD018C1B9D0B1995E0911A07F0911B07CF
:1021100062E773E082E090E0199580E001C08FEF04
:10212000DF91CF911F910F91FF90EF90DF90CF90B3
:1021300008958BEF96E0C2D063E083EA92E058DF27
:1021400063E089E596E054DF63E08AE696E050CFED
:102150000F931F93CF93DF938C01C0E0D0E0F80181
:10216000EC0FFD1F6491662371F0E0913508F0914A
:1021700036080190F081E02D85E398E01995892BD0
:1021800011F02196ECCFCE01DF91CF911F910F91ED
:102190000895EF92FF920F931F93682F84E190E0D0
:1021A0002DDC81E6E82E88E0F82E0AEA10E026E52C
:1021B00030E046E550E06EEB70E088E390E09ED0C2
:1021C00008E210E02AE030E04AEA50E069E270E01C
:1021D0008AEE98E0A0DB1F910F91FF90EF90089599
:1021E000EF92FF920F931F93682F87ED90E006DC2C
:1021F00081E6E82E88E0F82E0EEB10E02AE031E0D0
:102200004CEE50E06AEA70E08CEE90E077D008E2A5
:1022100010E02AE030E04AEA50E06FE071E08AEE38
:1022200098E079DB1F910F91FF90EF900895EF9266
:10223000FF920F931F93682F85E790E0DFDB80917B
:102240001C0791E6E92E98E0F92E8823A9F008E210
:1022500010E02FE030E04AEA50E06DE870E08AEEEE
:1022600098E059DB2FE030E04AEA50E062EA70E0A3
:102270008AEE98E050DB0BC00EEB10E02FEA30E066
:1022800041E950E06AEA70E081E990E037D01F91BF
:102290000F91FF90EF900895009769F0FC01019075
:1022A0000020E9F73197AF01481B590BBC0185E3CA
:1022B00098E00C94260580E090E00895CF93DF939A
:1022C000EBDFEC0182E793E0E7DF8C0F9D1FDF91EE
:1022D000CF910895CF93DF93FC01448155816081B4
:1022E000718185E398E00E942605EC0182E793E086
:1022F000D3DF8C0F9D1FDF91CF9108952F923F92D6
:102300004F925F926F927F928F929F92AF92BF9205
:10231000CF92DF92EF92FF920F931F93CF93DF93B1
:10232000CDB7DEB764970FB6F894DEBF0FBECDBF52
:102330009C8B8B8B4B016A01B9012801170123ED9E
:102340008216910474F084279527C826D926AC01FB
:102350004C255D255C8B4B8B540192ED892E912C85
:1023600003C082EDA82EB12C4A145B0404F54A2464
:102370005B24A424B5244A245B246C257D25C62631
:10238000D7266C257D25A814B9048CF48A249B24B7
:10239000A824B9248A249B248B899C898C259D257B
:1023A000C826D926DC01AC25BD25BC8BAB8B84149B
:1023B000950421F5EB89FC89CE16DF065CF09B893C
:1023C0008C89EC15FD0514F49C2D8D2DCB88DC88B3
:1023D0009B8B8C8B6C157D0544F02B893C892617D3
:1023E000370714F47C8B6B8BB601710184012B8948
:1023F0003C89A4018AEE98E033DCA2C0A6018B8957
:102400009C89481B590B5E874D87D501A819B909CE
:10241000B88BAF87FB01E81BF90BFA83E9839201C4
:102420002819390938872F83AB014C195D095A8760
:102430004987C2018A199B099A8B898BA414B50418
:1024400029F0D5011197BC87AB8702C0BC86AB864B
:1024500034011E821D821C821B828B859C85861501
:1024600097057CF18B819C816F8578890E942F2B49
:10247000EB89FC89E60FF71F8D819E816F8178853E
:102480000E942F2B2B893C89260F371F4B815C81A3
:102490008D859E85480F591F5C834B83AD81BE811E
:1024A00049815A81A40FB51FBE83AD837101830199
:1024B000A301BF018AEE98E0D3DB5FEF651A750ACE
:1024C000CCCFC3018A199B09A985BA85A89F500161
:1024D000A99FB00CB89FB00C1124C30188199909A9
:1024E000E981FA81E89F4001E99F900CF89F900CE8
:1024F00011244614570424F1C50169897A890E9480
:102500002F2BF601E60FF71FC4016F8178850E941B
:102510002F2B2B893C89260F371F49855A85A40EFE
:10252000B51E89819A81880E991E71018301A301CC
:10253000BF018AEE98E094DB9FEF691A790AD9CF40
:1025400064960FB6F894DEBF0FBECDBFDF91CF917A
:102550001F910F91FF90EF90DF90CF90BF90AF90C1
:102560009F908F907F906F905F904F903F902F90B3
:102570000895FC01A089B18982E08C93A485B5857A
:102580001C92A685B78583E38C93108EA489B589A8
:1025900086E08C93A289B3898C9180618C93A28907
:1025A000B3898C9188608C93A289B3898C9180685F
:1025B0008C930288F389E02D80818F7D808308953C
:1025C0008F929F92AF92BF92CF92DF92EF92FF9243
:1025D0000F931F93CF93DF93C091FA08D091FB081C
:1025E0008091FE089091FF080091FC081091FD0871
:1025F000C817D90709F48EC0D093FF08C093FE080E
:102600002091020930910309409104095091050974
:10261000DE010E94562B6B017C012091060930914E
:1026200007094091080950910909D8010E94562BC9
:10263000AB01BC014C0D5D1D6E1D7F1D80910A0913
:1026400090910B09A0910C09B0910D096A017B01D1
:10265000C80ED91EEA1EFB1EC701B60120911A0939
:1026600030911B0940911C0950911D090E940B32A9
:1026700069017A01DA01C9012091EE083091EF0871
:102680002A35310519F118F4232B41F03FC0243BC2
:10269000310521F02E303140C9F038C02091F008CA
:1026A0003091F108A901440F551F60E070E0C41695
:1026B000D506E606F70638F5A90160E070E0C41615
:1026C000D506E606F70610F1C90117C04091F208D9
:1026D0005091F3084A01880C991CA12CB12CC81404
:1026E000D904EA04FB0478F44A01A12CB12CC814E3
:1026F000D904EA04FB0450F0CA010197092E000C2A
:10270000AA0BBB0B03C080E090E0DC019093F508BE
:102710008093F40880910009909101090817190726
:1027200009F479C0109301090093000920910E0962
:1027300030910F094091100950911109DE010E945A
:10274000562B6B017C0120911209309113094091A5
:10275000140950911509D8010E94562BAB01BC01F8
:102760004C0D5D1D6E1D7F1D8091160990911709FE
:10277000A0911809B09119096A017B01C80ED91EF0
:10278000EA1EFB1EC701B60120911A0930911B09F0
:1027900040911C0950911D090E940B32DA01C901B8
:1027A0006091EE087091EF086A35710581F018F4B8
:1027B000672B41F02CC0643B710521F06E307140F5
:1027C00031F025C06091F2087091F30804C0609167
:1027D000F0087091F1086B01CC0CDD1CE12CF12CA0
:1027E0002C153D054E055F0578F46B01E12CF12CAD
:1027F0002C153D054E055F0550F0CB010197092EC4
:10280000000CAA0BBB0B03C080E090E0DC019093AE
:10281000F7088093F608DF91CF911F910F91FF90F9
:10282000EF90DF90CF90BF90AF909F908F900895E2
:102830004F925F926F927F928F929F92AF92BF92D0
:10284000CF92EF92FF920F931F93CF93DF935C0190
:10285000EB014A013901412C512C84E190E02C819B
:102860003D814216530608F5E881F981309729F435
:1028700010922B09EBE2F9E002C0E40DF51DCC2427
:10288000C394730184012081A501BC018AEE98E004
:102890000E940E072091F0083091F108281739079F
:1028A00024F02FEF421A520ADACFDF91CF911F9115
:1028B0000F91FF90EF90CF90BF90AF909F908F902F
:1028C0007F906F905F904F900895DF92EF92FF920C
:1028D0000F931F93CF93DF931CB5DDB585E00E9466
:1028E0005A0B80910201877F8093020188EB0E943E
:1028F000690B80E00E94690BC82F88EC0E94690B6D
:1029000080E00E94690B909102019860909302010F
:1029100080958F77CF77082F0C0F063008F46AC0A8
:1029200080910201877F8093020180E90E94690BF8
:1029300080E00E94690BE82E80E00E94690B80E92C
:102940000E94690B80E00E94690BF82E80E00E94D3
:10295000690BC82FEF1048C080ED0E94690B80E022
:102960000E94690BF82E80E00E94690B80ED0E94A6
:10297000690B80E00E94690BD82E80E00E94690BF1
:10298000FD1032C094E0E99E900111244C2F50E0DC
:1029900096E0559547959A95E1F7422B532B6FEFAB
:1029A00073E09B01241B350BA901C1F034E0F39EB9
:1029B000B0011124282F30E086E0359527958A95BF
:1029C000E1F7262B372B2115310541F05093FB08F9
:1029D0004093FA083093FD082093FC08802F90E084
:1029E0009093F9088093F8088091020188608093A1
:1029F000020104C01092F9081092F8081CBDDDBD58
:102A000081E02091F8083091F908232B09F480E047
:102A1000DF91CF911F910F91FF90EF90DF9008957C
:102A20002F923F924F925F926F927F928F929F92DE
:102A3000AF92BF92CF92DF92EF92FF920F931F93CC
:102A4000CF93DF936C015B018A01790166247724BF
:102A5000641A750AC0E0D0E00C171D070CF458C0CA
:102A60004E018A0C9B1C9701A4012601400E511EA9
:102A7000B2018AEE98E0B6D89701A4011601201A97
:102A8000310AB1018AEE98E0ADD845018C1A9D0A51
:102A90009701A401B2018AEE98E0A4D89701A4019D
:102AA000B1018AEE98E09ED82E014C0C5D1C970176
:102AB0004501800E911EA401B2018AEE98E092D8E1
:102AC00016012C1A3D0A9701A401B1018AEE98E083
:102AD00089D897014501801A910AA401B2018AEEB2
:102AE00098E080D89701A401B1018AEE98E07AD8E5
:102AF000CE0101966C0E7D1E680E791E77FC06C015
:102B000001501109601A710A601A710AEC01A4CF10
:102B1000DF91CF911F910F91FF90EF90DF90CF90B9
:102B2000BF90AF909F908F907F906F905F904F90ED
:102B30003F902F900895CF93DF93CDB7DEB7C65B5C
:102B4000D1090FB6F894DEBF0FBECDBF789484B51F
:102B5000826084BD84B5816084BD85B5826085BD99
:102B600085B5816085BD80916E00816080936E0027
:102B70001092810080918100826080938100809119
:102B800081008160809381008091800081608093CA
:102B900080008091B10084608093B1008091B0008A
:102BA00081608093B0008091910082608093910059
:102BB000809191008160809391008091900081606C
:102BC000809390008091A10082608093A100809109
:102BD000A10081608093A1008091A000816080931A
:102BE000A0008091210182608093210180912101C8
:102BF0008160809321018091200181608093200178
:102C000080917A00846080937A0080917A0082605B
:102C100080937A0080917A00816080937A0080911D
:102C20007A00806880937A001092C10085E398E072
:102C3000A0DC88E997E09DDC60E08CE00E94130A4C
:102C400061E08CE00E94900A8FE19DE090931B0769
:102C500080931A0783E29DE09093240780932307D3
:102C600085EC92E075DA61E088E00E94900A80913C
:102C700002018F7D8093020161E089E00E94900A49
:102C800061E087E00E94900A61E084E30E94900A7C
:102C900061E083E30E94900A60E082E30E94900A70
:102CA000809102018F7B80930201809102018061FB
:102CB0008093020161E086E00E94900A8091020107
:102CC00088608093020110922A098CB5837F8CBDA5
:102CD0008CB58F7D8CBD1FB7F8948091260781112C
:102CE00027C0E6E5F2E08491E0E1F2E09491E82F7C
:102CF000F0E0EE0FFF1FEF53FE4FA591B491EC9162
:102D0000E92321F461E085E30E94130A61E085E391
:102D10000E94900A8CB580618CBD8CB580648CBD9E
:102D200061E084E30E94900A61E083E30E94900ADC
:102D3000809126078F5F809326071FBF85E00E9442
:102D40005A0B8091020180618093020180910201FF
:102D50008F7D8093020162E370E080E090E00E944A
:102D6000CC0A8091020180628093020168E770E0E2
:102D700080E090E00E94CC0AECE2F1E07F012FEFCE
:102D8000E21AF20A64916F3FB1F1862F807C80389D
:102D9000B9F0803C49F1803411F0F701EFCF162FE4
:102DA0001F736F01012FFFEFCF1ADF0A0023C9F055
:102DB000F60164918AEE98E00E94B70B0150F3CFC0
:102DC000162F1F736F01012FFFEFCF1ADF0A0023A9
:102DD00041F0F60164918AEE98E00E94700B015078
:102DE000F3CFE10EF11CD9CF6F7370E080E090E07B
:102DF0000E94CC0AD2CF60E070E08AEE98E037D82B
:102E000080E00E945A0B61E089E00E94900AE0E7AE
:102E1000F2E0E4918E2F90E0FC013197E231F10570
:102E200008F0B9C08827EE58FF4F8F4F0C94422B03
:102E300084B5806884BD8FE787BDB1C084B58062EA
:102E400084BD8FE788BDABC080918000806880938F
:102E500080008FE790E090938900809388009FC066
:102E6000809180008062809380008FE790E0909353
:102E70008B0080938A0093C080918000886080934B
:102E800080008FE790E090938D0080938C0087C046
:102E90008091B00080688093B0008FE78093B3008A
:102EA0007EC08091B00080628093B0008FE78093F5
:102EB000B40075C0809190008068809390008FE787
:102EC00090E0909399008093980069C08091900061
:102ED0008062809390008FE790E090939B008093B6
:102EE0009A005DC0809190008860809390008FE789
:102EF00090E090939D0080939C0051C08091A00031
:102F000080688093A0008091A0008F7B8093A000B8
:102F10008FE790E09093A9008093A80040C0809133
:102F2000A00080628093A0008FE790E09093AB00B8
:102F30008093AA0034C08091A00088608093A00094
:102F40008FE790E09093AD008093AC0028C0809113
:102F500020018068809320018FE790E09093290101
:102F6000809328011CC08091200180628093200101
:102F70008FE790E090932B0180932A0110C08091FD
:102F800020018860809320018FE790E090932D01CD
:102F900080932C0104C060E089E00E94130A61E084
:102FA00089E00E94900A61E089E00E94130A809102
:102FB000020180648093020188DC8091F80890917E
:102FC000F908892B09F094C080E090E00E94E63176
:102FD0008A3A09F08DC001E010E0C8010E94E63194
:102FE000F801E651F74F878B0F5F1F4F0D31110529
:102FF000A1F761E678E08AEE98E00E94370F80E062
:1030000016D980E0EDD880E0C4D88FEE9DE0909393
:103010006707809366078CEE9DE090936507809329
:10302000640789E990E1909361078093600787E9DD
:103030009DE0909363078093620784E29DE0909304
:103040005F0780935E073E0125E6620E711C40918A
:10305000280750912907C957DF4F59834883C7581C
:10306000D04080916D0790916E07C956DF4F9983CC
:103070008883C759D040A0912A07B0912B07C15629
:10308000DF4FB983A883CF59D040E0912C07F0914E
:103090002D07CD55DF4FF983E883C35AD0402091E7
:1030A0002E0730912F07C955DF4F39832883C75A20
:1030B000D0404091300750913107CD57DF4F5983B1
:1030C0004883C358D0408091320790913307C5554B
:1030D000DF4F99838883CB5AD040A0913407B091B9
:1030E0003507C155DF4FB983A883CF5AD04005C5F6
:1030F00088E1EAE0F2E0DE01AB59BF4F01900D92AA
:103100008A95E1F7E091EE08F091EF08CD54DF4F9A
:10311000F983E883C35BD04060E070E08AEE98E01A
:103120000E94000C6FEF7FEF8AEE98E00E94370F4D
:10313000A090F208B090F308B7FE03C0FFEFAF1AFB
:10314000BF0AB594A7942AE0A21AB1088091F008AA
:103150009091F10897FD019695958795C297E9EBB7
:10316000F2E024914F012223D1F0CC24C394EE2429
:10317000EA94FE2C00E010E0A501BC018AEE98E084
:103180000E940E073FEF831A930A2091F0083091B6
:10319000F108281739071CF0F4012491E4CF95DBDE
:1031A0008111FDCFC158DF4F1882CF57D040C15891
:1031B000DF4F2881CF57D04048E0249F9001112451
:1031C000C557DF4F39832883CB58D04005E6E02E22
:1031D000F12CEC0EFD1EE20EF31E670134E0C30E6F
:1031E000D11CC158DF4F4881CF57D040433008F041
:1031F00009C1D6012D903C90F7014080518020E01C
:1032000030E042E050E0B101C2010ADC20E030E0F1
:1032100045E050E0B101C20103DC20E038EF4AE0B4
:1032200050E0B101C201FCDB50DB8823D1F22EEF6C
:103230003FEFCD57DF4F39832883C358D040C12C8F
:10324000D12C72E0A72EB12CA601420D531DE12C0A
:1032500068EFF62E8A0132016A0C7B1C9301420151
:103260008A189B08B4018AEE98E00E94300EA101F2
:103270004C195D098A019301B4018AEE98E00E941D
:10328000300E3601640C751C42018C189D08A1019A
:103290004A0D5B1D8A019301B4018AEE98E00E94F9
:1032A000300EA1014A195B098A019301B4018AEE2B
:1032B00098E00E94300EC6010196CD57DF4F48813D
:1032C0005981C358D040C40ED51ED601A80FB91FCE
:1032D000CD57DF4FB983A883C358D040AF3FEFEF3E
:1032E000BE0779F0F1E0AF1AB1086D01CA18DB082A
:1032F00096012A193B09CD57DF4F39832883C358DC
:10330000D0406C01A816B9060CF09ECFE1E0F0E0C9
:10331000EC0FFD1FC557DF4F48815981CB58D04076
:10332000E40FF51F8091FA089091FB08092E000C1C
:10333000AA0BBB0B80839183A283B3838091FC088B
:103340009091FD08092E000CAA0BBB0B848395837A
:10335000A683B783C158DF4F5881CF57D0405F5FF6
:10336000C158DF4F5883CF57D04064E670E080E00B
:1033700090E00E94CC0A6FEF7FEF8AEE98E00E9407
:10338000370FC158DF4F8881CF57D040833009F4C1
:103390000ECFA090F208B090F308B7FE03C09FEFE5
:1033A000A91AB90AB594A794AAE0AA1AB1088091FB
:1033B000F0089091F10897FD019695958795C29731
:1033C000EDEAF2E024914F01222309F4F0CECC245F
:1033D000C394EE24EA94FE2C00E010E0A501BC01A9
:1033E0008AEE98E00E940E07FFEF8F1A9F0A209145
:1033F000F0083091F108281739070CF4D8CEF40101
:103400002491E2CF89819A81AB81BC81C158DF4F81
:1034100088839983AA83BB83CF57D04029893A896F
:103420004B895C89CD57DF4F288339834A835B837F
:10343000C358D040821B930BA40BB50BC956DF4F6A
:1034400088839983AA83BB83C759D0408D859E8585
:10345000AF85B889C156DF4F88839983AA83BB8320
:10346000CF59D0402D893E894F89588DC957DF4F9C
:10347000288339834A835B83C758D040821B930BD0
:10348000A40BB50BCD55DF4F88839983AA83BB83EB
:10349000C35AD04089859A85AB85BC85C557DF4F17
:1034A00088839983AA83BB83CB58D040CD57DF4F05
:1034B000288139814A815B81C358D040821B930B9C
:1034C000A40BB50BC955DF4F88839983AA83BB83AF
:1034D000C75AD0408D819E81AF81B885C555DF4FD9
:1034E00088839983AA83BB83CB5AD040C957DF4FC7
:1034F000288139814A815B81C758D040821B930B58
:10350000A40BB50BC155DF4F88839983AA83BB8376
:10351000CF5AD040CD55DF4F288139814A815B8118
:10352000C35AD040C956DF4F688179818A819B8117
:10353000C759D0400E94FC316B017C01C155DF4F5F
:10354000288139814A815B81CF5AD040C955DF4FEC
:10355000688179818A819B81C75AD0400E94FC3161
:10356000C61AD70AE80AF90AC0921A09D0921B09AA
:10357000E0921C09F0921D09CD28CE28CF2809F42D
:1035800058C2A9968CAD9DADAEADBFADA997C15740
:10359000DF4F88839983AA83BB83CF58D040E996B5
:1035A000CCACDDACEEACFFACE9972C013D014C1886
:1035B0005D086E087F08E1962CAD3DAD4EAD5FAD68
:1035C000E197CD56DF4F288339834A835B83C35904
:1035D000D0402C193D094E095F09C556DF4F28839D
:1035E00039834A835B83CB59D040A3019201CD55E7
:1035F000DF4F688179818A819B81C35AD0400E94C4
:10360000FC314B015C01C556DF4F288139814A816D
:103610005B81CB59D040C155DF4F688179818A8168
:103620009B81CF5AD0400E94FC31861A970AA80A83
:10363000B90A8092020990920309A0920409B092FB
:103640000509C956DF4F688179818A819B81C759F5
:10365000D0400E94FC314B015C01A3019201C9558D
:10366000DF4F688179818A819B81C75AD0400E944F
:10367000FC31861A970AA80AB90A80920609909224
:103680000709A0920809B0920909A7019601C1583B
:10369000DF4F688179818A819B81CF57D0400E941A
:1036A000FC314B015C01C157DF4F288139814A81D0
:1036B0005B81CF58D040CD57DF4F688179818A81B7
:1036C0009B81C358D0400E94FC31A5019401261B68
:1036D000370B480B590BC156DF4F688179818A81BE
:1036E0009B81CF59D0400E94FC312B013C01CD562B
:1036F000DF4F288139814A815B81C359D040CD5742
:10370000DF4F688179818A819B81C358D0400E94B4
:10371000FC314B015C01A7019601C557DF4F688161
:1037200079818A819B81CB58D0400E94FC31A501D0
:103730009401261B370B480B590BC555DF4F688189
:1037400079818A819B81CB5AD0400E94FC31460E00
:10375000571E681E791EC157DF4F288139814A8163
:103760005B81CF58D040C557DF4F688179818A810E
:103770009B81CB58D0400E94FC316B017C01CD561F
:10378000DF4F288139814A815B81C359D040C158BC
:10379000DF4F688179818A819B81CF57D0400E9419
:1037A000FC31A7019601261B370B480B590BC95753
:1037B000DF4F688179818A819B81C758D0400E9400
:1037C000FC31460E571E681E791E40920A0950921F
:1037D0000B0960920C0970920D09AD968CAD9DADF0
:1037E000AEADBFADAD97C157DF4F88839983AA8334
:1037F000BB83CF58D040ED968CAC9DACAEACBFAC8B
:10380000ED976C017D01C818D908EA08FB08E59618
:103810002CAD3DAD4EAD5FADE597CD56DF4F288366
:1038200039834A835B83C359D040281939094A092F
:103830005B09C556DF4F288339834A835B83CB59A5
:10384000D040A7019601CD55DF4F688179818A81EB
:103850009B81C35AD0400E94FC312B013C01C556CC
:10386000DF4F288139814A815B81CB59D040C155D6
:10387000DF4F688179818A819B81CF5AD0400E9435
:10388000FC31461A570A680A790A40920E0950928A
:103890000F096092100970921109C956DF4F6881B3
:1038A00079818A819B81C759D0400E94FC312B01CC
:1038B0003C01A7019601C955DF4F688179818A8152
:1038C0009B81C75AD0400E94FC31461A570A680AA9
:1038D000790A409212095092130960921409709269
:1038E0001509A5019401C158DF4F688179818A814A
:1038F0009B81CF57D0400E94FC316B017C01C157A6
:10390000DF4F288139814A815B81CF58D040CD5724
:10391000DF4F688179818A819B81C358D0400E94A2
:10392000FC31A7019601261B370B480B590BC156DA
:10393000DF4F688179818A819B81CF59D0400E9475
:10394000FC312B013C01CD56DF4F288139814A8162
:103950005B81C359D040CD57DF4F688179818A811F
:103960009B81C358D0400E94FC316B017C01A501B2
:103970009401C557DF4F688179818A819B81CB583B
:10398000D0400E94FC31A7019601261B370B480B43
:10399000590BC555DF4F688179818A819B81CB5A4C
:1039A000D0400E94FC31460E571E681E791EC1573A
:1039B000DF4F288139814A815B81CF58D040C5577C
:1039C000DF4F688179818A819B81CB58D0400E94EA
:1039D000FC316B017C01CD56DF4F288139814A8152
:1039E0005B81C359D040C158DF4F688179818A819A
:1039F0009B81CF57D0400E94FC31A7019601261B26
:103A0000370B480B590BC957DF4F688179818A8181
:103A10009B81C758D0400E94FC31460E571E681E3D
:103A2000791E4092160950921709609218097092F7
:103A30001909CD54DF4F68817981C35BD0408AEE8C
:103A400098E00E94000C0E9465148111FCCF6AEA84
:103A500080E090E00E94EE3101E010E0F801E651D4
:103A6000F74F6789C8010E94EE310F5F1F4F0D317C
:103A70001105A1F7BECA8091E4089091E508609114
:103A8000DE087091DF08009709F045C061157105E7
:103A900009F045C0009709F04CC08091F80890915A
:103AA000F908892B09F462C180912707882309F45A
:103AB0008CC081E08093270780912507882309F433
:103AC00075C188E997E00E946A056C018F3F9105F6
:103AD00009F008F4DDC280918A07882311F40C9460
:103AE000E52885E398E00E946A058F3F910509F07B
:103AF00010F40C940D290E9432060E946514209146
:103B0000E8083091E9088091E2089091E3082817CD
:103B10003907D9F4B0CF6115710591F4B7CF232BD4
:103B200009F4BBCFDB018C9190E0919581959109CF
:103B300009C0232B09F4B1CFFC01808190E002C0C1
:103B40000E94992D892B09F4A8CF0E94040B0091A3
:103B50001D0710911E0720911F0730912007DC01DF
:103B6000CB01801B910BA20BB30BC397A105B10531
:103B700008F493CF11E6E12E18E0F12E0CE310E0EB
:103B800020E431E040E050E060E070E08AEE98E050
:103B90000E948B0C21E638E04FEF5FEF64EE78E097
:103BA00084E190E00E94181421E638E04FEF5FEFC7
:103BB00068ED78E088E290E00E94181464EE78E006
:103BC0008EED98E00E94FD0868CF0E94E01280917F
:103BD000EE089091EF08009729F4E090F408F09037
:103BE000F5081AC08A35910529F4E090F608F0909E
:103BF000F70812C0E090F008F090F108843B9105BE
:103C000029F48091F4089091F50804C08091F60899
:103C10009091F708E81AF90A0E94E0128091EE08E4
:103C20009091EF08009729F40091F6081091F70899
:103C30001EC08A35910549F40091F2081091F308ED
:103C40008091F4089091F5080BC0843B910559F4DC
:103C50000091F2081091F3088091F6089091F7080E
:103C6000081B190B04C00091F4081091F50861E8D5
:103C700073E0CE0101960E9417090A3A110508F473
:103C80006BC0FAE6EF16F104A8F486E592E00E9414
:103C90005E1166E572E0CE0101960E94E80810927E
:103CA00001021092000281E00E94C91063E08FE5DA
:103CB00092E050C0C701855791098635910580F57E
:103CC00080911C07882371F08EE692E00E945E11BD
:103CD0006EE672E0CE0101960E94E80863E083E799
:103CE00092E00DC08EE792E00E945E116EE772E0F6
:103CF000CE0101960E94E80863E084E892E00E9409
:103D0000F80F90911C0781E0892780931C0781E0C0
:103D100090E090930102809300020E9417111CC052
:103D200027EDE216F104C0F080E992E00E945E11F6
:103D300060E972E0CE0101960E94E80882E090E01E
:103D4000909301028093000281E00E94F01063E0F2
:103D500085E992E00E94F80F63E083EA92E00E9416
:103D6000F80FCE0101960E941209A3CE10922707E8
:103D700080910002909101028130910549F08230DA
:103D8000910551F0892B59F480E00E94C91007C0B9
:103D900080E00E94171103C080E00E94F0108FEFB6
:103DA0009FEF909301028093000286CE80910302E0
:103DB000882309F439C1813021F510928A071092C5
:103DC0008907109288078FEF80930202109287076D
:103DD0001092860788EA96E00E94A81063E082EBC2
:103DE00092E00E94F80F82E0809303020E94040B8D
:103DF000609382077093830780938407909385076D
:103E000060CE823059F48DE896E00E94A81063E0FD
:103E100082EF96E00E94F80F83E00CC0833069F4D3
:103E20008AE696E00E94A81063E085EB92E00E948B
:103E3000F80F84E08093030244CE843009F0E6C09A
:103E400080918A07811107C081E080938A078BE403
:103E500096E00E94A8108CE294E00E94A810809145
:103E600086071F928F93809187071F928F9380916F
:103E700089071F928F938AEB92E09F938F938E0115
:103E80000F5F1F4F1F930F930E94B72DC8010E9411
:103E9000230D8CED93E00E94A8108EE893E00E9421
:103EA000A8108EE393E00E94A8104DB75EB7465F5E
:103EB0005F4F0FB6F8945EBF0FBE4DBFF12C8091DF
:103EC0008907F81608F07CC080911200282F082E70
:103ED000000C330B3F938F9380911100282F082EF5
:103EE000000C330B3F938F9380911000282F082EE6
:103EF000000C330B3F938F9380910F00282F082ED7
:103F0000000C330B3F938F9380910E00282F082EC7
:103F1000000C330B3F938F9380910D00282F082EB8
:103F2000000C330B3F938F9380910C00282F082EA9
:103F3000000C330B3F938F9380910B00282F082E9A
:103F4000000C330B3F938F9380910A00282F082E8B
:103F5000000C330B3F938F9380910900282F082E7C
:103F6000000C330B3F938F9380910800282F082E6D
:103F7000000C330B3F938F9380910700282F082E5E
:103F8000000C330B3F938F93809106001F928F9309
:103F90001F92FF92A4E0B3E0BF93AF931F930F93E0
:103FA0000E94B72D2DB73EB7205E3F4F0FB6F89455
:103FB0003EBF0FBE2DBFC8010E94230DF3947FCFDB
:103FC0008EEE92E00E94A8108AEE95E00E94A81062
:103FD0008CEA95E00E94A8108EE695E00E94A81059
:103FE0008AE395E00E94A8108DEF94E00E94A8104B
:103FF0008DEB94E00E94A8108CE794E00E94A8103A
:1040000063E083EA92E00E94F80F0BC0853009F06C
:1040100058CD80918807811154CD83E396E00E94AA
:10402000A810109203024DCD80918A07882309F4CD
:1040300048CD80918907882309F443CD9091810769
:1040400080918707891708F03CCD809188078111FE
:1040500038CDC0907D07D0907E07E0907F07F0902C
:104060008007C114D104E104F10411F40C947D29FA
:104070000E94040BDC01CB018C199D09AE09BF091C
:1040800080319742A105B10510F00C947D2919CD1E
:10409000B82EE0907A07F0907B0787010F5F1F4FE3
:1040A00060917807709179070617170750F161152D
:1040B0007105C1F0605F7F4F709379076093780757
:1040C00080917607909177070E949D2C90937507B9
:1040D00080937407009709F4FECC90937707809340
:1040E00076070FC080E490E090937907809378077B
:1040F0000E94702B9093770780937607892B09F4A1
:10410000EACC80917307811105C0EFEBCE16D10484
:1041100009F0E1CCE0917607F091770710937B07E7
:1041200000937A07DF01AE0DBF1DCC9281E0809332
:1041300073070530110508F4CECC8381482F50E079
:10414000CA0105960817190709F0C5CC80818F3B75
:1041500011F00C94F2299181892F80958B110C9488
:10416000F229909372079281292F30E03595279597
:10417000359527952093710793709A01392B3093C9
:10418000700720936F07CF01049690937507809373
:104190007407E0912307F0912407309709F465C074
:1041A00085E793E01995809172070E94C60FE09110
:1041B0002307F09124078CE793E019954AE0BE01AC
:1041C0006F5F7F4F80916F07909170070E94B031B1
:1041D000E0912307F0912407CE0101961995E09113
:1041E0002307F09124078FE793E0199500E010E092
:1041F00080916F0790917007E0912307F091240759
:104200000817190778F5A0917407B0917507A00FEA
:10421000B11F8C9190EE980F9F3528F489831A82F4
:10422000CE01019604C0893021F482E893E019950B
:1042300016C08A3019F485E893E0F9CF8D3019F46F
:1042400088E893E0F4CF8BE893E01995E091740748
:10425000F0917507E00FF11F80810E94C60F0F5F7C
:104260001F4FC6CF8BE895E01995809172078F3F5D
:1042700009F05DC7C956DF4F48815981C759D04001
:104280004115510551F06091740770917507809147
:104290006F0790917007FA011995E0907407F090FC
:1042A000750743E050E06EE873E0C7010E94A92D56
:1042B000892B29F580912507882319F08150809357
:1042C000250780912207882319F0815080932207C7
:1042D00080912507811109C0E0916B07F0916C076F
:1042E000309719F080916A071995E0916807F0916D
:1042F0006907309709F0199510926A0738C748E0A6
:1043000050E062E973E0C7010E94A92D892BB1F545
:10431000D70151968C918134C1F4809166079091B8
:104320006707892B09F423C7C70144969A838983B9
:104330004AE050E0BE016F5F7F4F0E948030862FC1
:10434000E0916607F091670717C08091640790912C
:104350006507892B09F40BC7C70143969A838983A4
:104360004AE050E0BE016F5F7F4F0E948030862F91
:10437000E0916407F09165071995F9C64EE250E0A7
:104380006BE973E0C7010E94A92D892B29F4E09104
:104390006207F09163071BC045E350E06AEC73E0ED
:1043A000C7010E94A92D892B29F4E0916007F091A3
:1043B000610796C64FE250E060E074E0C7010E94DA
:1043C000A92D892B51F4E0915E07F0915F0730979A
:1043D00009F4CDC6C7011995CAC645E050E060E3AF
:1043E00074E0C7010E94A92D892B29F400915C0774
:1043F00010915D07E9C244E050E066E374E0C70154
:104400000E94A92D892B09F05FC0C0905A07D09057
:104410005B07C114D10409F4AAC6C7010896D301E9
:104420008D939C934AE050E0B3010E948030F62EB9
:10443000F301008111810F5F1F4F1183008360E240
:1044400070E0C8010E948E2DD30111969C938E932B
:10445000FC0110828D919C91119701968D939C93F4
:1044600040E150E0B3010E9480304B015C01D30178
:104470008D919C91119701968D939C932091740737
:1044800030917507281B390B2F5E3F4F40916F0706
:10449000509170072417350780F420E0AE014F5F7C
:1044A0005F4FB301CFD7F301808191810196918352
:1044B00080839E012F5F3F4F02C020E030E0A401C7
:1044C000B8018F2DF601CFC548E050E06BE374E0F2
:1044D000C7010E94A92D892BA9F5009158071091B9
:1044E00059070115110509F442C6CDB6DEB6C7015C
:1044F00008969A83898340E150E0BE016F5F7F4F49
:104500000E94803089819A8101969A838983E62E60
:10451000F12C2DB73EB72E193F090FB6F8943EBFC8
:104520000FBE2DBF4DB75EB74F5F5F4F5A01262FAD
:10453000220FBE016F5F7F4F85D7B501C701F8011C
:104540001995CEC144E050E064E474E0C7010E94D4
:10455000A92D892B09F05DC0D70114968C91803468
:1045600008F057C0C70104969A8389834AE050E057
:10457000BE016F5F7F4F0E948030962EE981FA81E5
:10458000CF0101969A83898321812F34C9F5009147
:104590005607109157070115110509F4E8C5ADB686
:1045A000BEB640E150E0BE016F5F7F4F0E94803099
:1045B000E981FA81CF0101969A838983E62EF12C55
:1045C000EDB7FEB7EE19FF090FB6F894FEBF0FBEA8
:1045D000EDBF2DB73EB72F5F3F4F6901262F220F4A
:1045E000A601BE016F5F7F4F2DD7A601B701892DB0
:1045F000F80119950FB6F894BEBE0FBEADBEB7C593
:10460000E0915407F0915507309709F4B0C5892D12
:10461000B3CE44E050E069E474E0C7010E94A92DE4
:10462000892B59F4C0905207D0905307C114D1047C
:1046300009F49DC5C701049613C047E050E06EE43D
:1046400074E0C7010E94A92D892BA1F5C0905007E5
:10465000D0905107C114D10409F489C5C701079648
:104660009A8389834AE050E0BE016F5F7F4F0E94CA
:104670008030F62E09811A810F5F1F4F1A8309833C
:1046800060E270E0C8010E948E2DAC014F5F5F4F69
:104690005A834983A0917407B091750720916F07E1
:1046A00030917007A20FB31F12971C92B8018F2D83
:1046B000F6015CC546E050E066E574E0C7010E9483
:1046C000A92D892B09F064C0D70116968C918534E9
:1046D00009F45EC0E0914E07F0914F07C158DF4FDB
:1046E000F983E883CF57D040EF2B09F440C5F6E0BB
:1046F000EF0EF11C6AE370E0C7010E948E2D9A83D1
:104700008983DC011C9289819A8101969A8389832D
:1047100040E150E0BE016F5F7F4F0E9480304B014F
:104720005C0189819A8101969A83898340E150E0F6
:10473000BE016F5F7F4F0E9480301B012C01C9803A
:10474000DA80BFEFCB1ADB0ADA82C98260E270E05E
:10475000C6010E948E2D9A838983FC0110820981F3
:104760001A810E5F1F4F62E270E0C8010E948E2D19
:104770009A838983DC011C929601A101B401C701CF
:10478000C158DF4FE881F981CF57D0401995EFC468
:1047900048E050E06DE574E0C7010E94A92D892B27
:1047A00059F400914C0710914D070115110509F4BA
:1047B000DEC4C7010C96CEC248E050E066E674E065
:1047C000C7010E94A92D892B09F044C080916F0771
:1047D000909170070D9728F400914A0710914B07AC
:1047E000F3C08091480790914907892B09F4BFC411
:1047F000C7010896D3018D939C9320E0AE014F5FD3
:104800005F4FB3011FD6F30180819181019691839F
:10481000808340E150E0B3010E9480306B017C0155
:10482000D3018D919C91FC012081203241F44AE01A
:1048300050E0B30101960E948030262F01C020E095
:10484000E0914607F0914707B701A601CE01019616
:1048500019958DC449E050E06FE674E0C7010E94ED
:10486000A92D892B09F042C00091440710914507FA
:104870000115110509F47BC4CDB6DEB6C70140961B
:10488000D3018D939C9320E0AE014F5F5F4FB30146
:10489000D9D5F30180819181059691838083209100
:1048A0006F073091700727523109369527954DB71C
:1048B0005EB7421B530B0FB6F8945EBF0FBE4DBFE1
:1048C000ADB7BEB711967D0120E0AD0160E070E0AC
:1048D000B9D5682F6695A701CE010196F801199503
:1048E0000FB6F894DEBE0FBECDBE41C449E050E025
:1048F00069E774E0C7010E94A92D892B09F050C017
:10490000C0904207D0904307C114D10409F42FC4CA
:10491000C7014096D3018D939C9320E0AE014F5F79
:104920005F4FB3018FD5F30180819181019691830F
:10493000808340E150E0B3010E9480304B015C0174
:10494000D301ED91FC911197CF0101968D939C932A
:1049500081818232D9F47F01B2E0EB0EF11C62E278
:1049600070E0C7010E948E2DF30191838083DC01EA
:104970001C92808191810196918380834AE050E06E
:10498000B3010E948030062F970103C000E020E0B1
:1049900030E0B501A401CE010196F6011995E7C3F7
:1049A00045E050E063E874E0C7010E94A92D892B1F
:1049B00009F08AC180916F07909170070A97B0F44F
:1049C00000914007109141070115110509F4CFC36B
:1049D000C70105969A8389834AE050E0BE016F5F64
:1049E0007F4F0E948030862FF801C6CC2091480767
:1049F00030914907C158DF4F39832883CF57D040C2
:104A0000232B09F4B4C3C7010596D3018D939C935E
:104A10004AE050E0B3010E948030C157DF4F688305
:104A2000CF58D040F301808191819C01255F3F4F99
:104A3000C557DF4F39832883CB58D04060E270E000
:104A4000C9010E948E2DD30111969C938E93FC0177
:104A500010828D919C91119701968D939C934AE0C1
:104A600050E0B3010E948030CD56DF4F68837983D8
:104A70008A839B83C359D040D3018D919C91119718
:104A800001968D939C934AE050E0B3010E948030E0
:104A9000F301808191810196918380834AE050E007
:104AA000B3010E948030D3018D919C9111970196A2
:104AB0008D939C934AE050E0B3010E9480301B012B
:104AC0002C01F3018081918101969183808340E1E3
:104AD00050E0B3010E948030C556DF4F6883798370
:104AE0008A839B83CB59D040D3018D919C911197A0
:104AF00001968D939C9340E150E0B3010E94803079
:104B00006B017C01F3018081918101969183808307
:104B100020E0AE014F5F5F4FB30194D4D3018D917C
:104B20009C91119701968D939C9340E150E0B301C5
:104B30000E9480304B015C01D301ED91FC911197F3
:104B4000CF01019611969C938E9391819F3431F4FD
:104B5000CF010A968D939C9331E00AC0993439F4C1
:104B6000CF010A96F3019183808332E001C030E0E7
:104B7000D301ED91FC9111978081813429F437960E
:104B8000ED93FC9311E019C0833531F43696D301CF
:104B9000ED93FC9313E011C0883431F43596D301C2
:104BA000ED93FC9312E009C0803531F43596D301C2
:104BB000ED93FC9314E001C010E0D301ED91FC9162
:104BC000119780818D3429F43796ED93FC9321E081
:104BD00009C0833531F43696D301ED93FC9322E07E
:104BE00001C020E0D301ED91FC91119780818035C7
:104BF00029F43696ED93FC9301E009C0853431F435
:104C00003A96D301ED93FC9302E001C000E04AE044
:104C100050E0B301F30180819181CA54DF4F2883B2
:104C2000C65BD040CB54DF4F3883C55BD0400E9479
:104C30008030D301ED91FC911197CF0101968D93B6
:104C40009C9381E09181CA54DF4F2881C65BD0409C
:104C5000CB54DF4F3881C55BD040953409F080E0FC
:104C60008F937F936F930F932F931F933F93FE0127
:104C700031965F01C556DF4FE880F980CB59D040AF
:104C800092018101CD56DF4F48815981C359D040EF
:104C9000C557DF4F68817981CB58D040C157DF4F6E
:104CA0008881CF58D040C158DF4FE881F981CF5774
:104CB000D04019952DB73EB7295F3F4F0FB6F894F6
:104CC0003EBF0FBE2DBF53C244E050E069E874E020
:104CD000C7013FD7892B59F5D70117968C918A3395
:104CE00031F5C0903E07D0903F07C114D10409F4BC
:104CF0003EC2C7010596F3019183808320E0AE0197
:104D00004F5F5F4FB3019ED3D3010D911C910E5F96
:104D10001F4F62E270E0C80101D7F30191838083E5
:104D2000DC011C92B801CE010196F601FEC147E0FC
:104D300050E06EE874E0C7010CD7892B09F04AC037
:104D400000913C0710913D070115110509F40FC2B0
:104D5000C7010B96D3018D939C9340E150E0B301C2
:104D60000E9480306B017C01F3018081918101966A
:104D70009183808320E0AE014F5F5F4FB30162D328
:104D8000D3012D913C9111972F5F3F4F2D933C9371
:104D9000A0917407B091750780916F07909170078B
:104DA000FD01E21BF30B9F012D5F3F4F28173907D1
:104DB00040F4A80FB91F12971C92D3014D915C913A
:104DC00002C040E050E0BE016F5F7F4FC601F801B6
:104DD0001995CDC145E050E066E974E0C701B9D648
:104DE000892BB9F500913A0710913B070115110580
:104DF00009F4BDC1C7010B969A8389834AE050E04C
:104E0000BE016F5F7F4F0E948030F62E89819A81AC
:104E100007969A83898340E150E0BE016F5F7F4F20
:104E20000E94803029813A812F5F3F4F3A83298346
:104E3000A0917407B091750720916F0730917007AA
:104E4000A20FB31F12971C9249815A818F2DF8012E
:104E50008DC142E050E06CE974E0C7017AD6892B3D
:104E600029F4E0913807F09139073AC144E050E065
:104E70006FE974E0C7016DD6892B09F06FC080918E
:104E80006F0790917007809728F500913607109171
:104E900037070115110509F46AC1C7010596D30149
:104EA0008D939C9320E0AE014F5F5F4FB301CAD258
:104EB000D301ED91FC911197CF0101968D939C93B5
:104EC00061E081818F3409F460E0CE010196F80140
:104ED00019954DC1C155DF4F28813981CF5AD04036
:104EE000232B09F444C1C7010596EF969FAF8EAFFF
:104EF000EF9720E0A301BE0163587F4FA3D2EF9646
:104F00008EAD9FADEF970196EF969FAF8EAFEF9767
:104F100040E150E0BE0163587F4F0E948030162F61
:104F2000EF968EAD9FADEF970196EF969FAF8EAF48
:104F3000EF9720E2AE014F5F5F4FBE0163587F4F96
:104F400081D2AE014F5F5F4F612FC301C155DF4F6B
:104F5000E881F981CF5AD040199509C145E050E068
:104F600064EA74E0C701F5D5892BA1F4809121078B
:104F7000882321F01092210710922507C555DF4F95
:104F800028813981CB5AD0402115310509F4EFC071
:104F9000F901A9C044E050E06AEA74E0C701D9D53C
:104FA000892B09F062C0CD57DF4F28813981C35862
:104FB000D040232B09F4DBC0C7010596D3018D93A4
:104FC0009C934AE050E0B3010E948030F62ED3015A
:104FD000ED91FC911197CF0101968D939C9320E068
:104FE000AE014F5F5F4FB3012DD2D301ED91FC9124
:104FF00011978F010F5F1F4F0D931C938181833594
:1050000069F460E270E0C80189D5F301918380837F
:10501000DC011C92980140E050E01BC040E150E0F0
:10502000B301C8010E9480304B015C01D3010D9196
:105030001C9111970F5F1F4F0D931C9360E270E05E
:10504000C8016CD5F30191838083DC011C92980127
:10505000A401BE016F5F7F4F8F2DCD57DF4FE881D9
:10506000F981C358D040199582C044E050E06FEAFE
:1050700074E0C7016ED5892B11F5C955DF4F288122
:105080003981C75AD040232B09F471C0D701149637
:105090008C91823429F48701095F1F4F21E0AEC152
:1050A000833429F48701045F1F4F22E0A7C18035B4
:1050B00009F05DC08701045F1F4F23E09FC143E0FB
:1050C00050E064EB74E0C70144D5892B71F481E0B2
:1050D00080936A07CD55DF4FE881F981C35AD040EC
:1050E000309709F444C0199542C080912207882363
:1050F000F1F1C156DF4F28813981CF59D0402115B8
:105100003105A9F180916F07909170078E0D9F1D59
:10511000FC0132971082609174077091750780913D
:105120006F07909170070297F901199520C0C95730
:10513000DF4F28813981C758D04021153105B9F09A
:10514000E0917407F091750780916F079091700757
:10515000E80FF91F10824091740750917507609114
:105160006F077091700780917207F901199510927D
:105170007B0710927A0710927207109271071092B3
:10518000730780917807909179078134910510F425
:105190000C946B1D80E490E09093790780937807DE
:1051A00060E470E08091760790917707C6D3909382
:1051B000750780937407009711F40C946B1D9093FE
:1051C0007707809376070C946B1D809103028230E1
:1051D00011F00C94711D0E94040B00918207109134
:1051E00083072091840730918507DC01CB01801B68
:1051F000910BA20BB30B89389341A105B10510F4B3
:105200000C94711D83E096E00E94A8108FEF8093AC
:105210000302109225070C94711D8033B1F488EBC2
:1052200094E00E94230D61E08CE00E94130A65E087
:1052300070E080E090E00E94CC0A60E08CE00E9488
:10524000130A109225070C947B1D8133A9F48091D9
:105250008107882341F08BEE94E00E94230D109289
:1052600081070C947B1D8DE195E00E94230D81E068
:10527000809381070C947B1D823341F48EE495E08A
:105280000E94230D63E08DE895E033C0833341F441
:105290008FE995E00E94230D63E081EE95E029C03F
:1052A000843341F483EF95E00E94230D63E086E3AD
:1052B00096E01FC0853321F463E088E496E019C0CE
:1052C000863321F463E089E596E013C0873321F447
:1052D00063E08AE696E00DC0883321F463E08BE753
:1052E00096E007C0893311F00C947B1D63E083EADC
:1052F00092E00E94F80F0C947B1D83E2EAE8F6E04E
:10530000DE01119601900D928A95E1F780910600D9
:1053100040917C0791E0940F882311F0492FFACF38
:1053200040937C07FE01389600E010E020E030E07A
:10533000A7E0DA2EBAE3CB2E7801D8015C91BF0149
:1053400062507109852F82958F70805D91E0503A8F
:1053500008F490E09D9D800D1124DB018C930F5F7C
:105360001F4FD7018C918F707F01B1E0EB1AF108CC
:1053700070E3B72EB80E90E06AE070E070D18B2D2C
:10538000D69E800D1124D7018C932530310509F06C
:10539000C0822F5F3F4F33962630310569F61F924A
:1053A0004F9380E693E09F938F937F926F92DFD32A
:1053B000C3010E94230D63E0CE0101960E94F80F05
:1053C0000E94040B60937D0770937E0780937F0794
:1053D000909380070F900F900F900F900F900F9069
:1053E0000C94611D10927B0710927A07109272073D
:1053F00010927107109273070C946B1DE0916F0768
:10540000F0917007C7018E0F9F1FFC013297108229
:1054100060E270E0C801CA54DF4F2883C65BD04009
:105420007DD3DC011D92AD01B801CA54DF4F288144
:10543000C65BD040822FC955DF4FE881F981C75A3A
:10544000D04094CEAF92BF92CF92DF92EF92FF9274
:105450000F931F93CF93DF931F92CDB7DEB78C01CD
:10546000009709F440C041155105E9F1DC01C12C58
:10547000D12CE22EF12C3A2F8B2F5D01A01AB10A0C
:10548000AE14BF045CF59D91EFE9E90FEA3110F429
:105490009F7D02C09A3379F3F0EDF90FFA3060F096
:1054A000EFEBE90FEA3138F061157105D1F0FB013E
:1054B0003083818316C097509053F601F695E79597
:1054C000E40FF51FC0FE03C08081982B02C09295A7
:1054D000907F9083FFEFCF1ADF0ACDCF222399F27E
:1054E000E3CF8A2D01C080E00F90DF91CF911F9113
:1054F0000F91FF90EF90DF90CF90BF90AF90089505
:1055000082ED98E00E94120988ED98E00E9412094D
:105510008EED98E00E94120984EE98E00C94120936
:10552000E8E9F7E01382128248EE53E060E070E0B1
:10553000448355836683778384E392E091838083F9
:105540002DEC30E0358724872CEC30E03787268738
:1055500028EC30E0318B208B29EC30E0338B228B30
:105560002AEC30E0358B248B2EEC30E0378B268B09
:10557000118E128E138E148EE5E3F8E013821282E0
:1055800044835583668377839183808385EC90E0A1
:105590009587848784EC90E09787868780EC90E0FD
:1055A000918B808B81EC90E0938B828B82EC90E0EE
:1055B000958B848B86EC90E0978B868B118E128E68
:1055C000138E148EEAEEF8E0138212821582148292
:1055D00080E491E09783868380EF90E091878087D5
:1055E000178616861586148613861286178A168ADB
:1055F000158A148A138A128A118A108A10AA11AA8B
:1056000012AA13AA81E084AB85AB17AA16AA8FEF62
:105610009FEF91AF80AF109229091092280915AE23
:1056200014AE13AE12AE84E492E0918380836CE0FA
:1056300077E084EE98E00E9417096DE773E08EED45
:1056400098E00E94170962E177E088ED98E00E94F7
:1056500017096DE773E082ED98E00C94170997FB4A
:10566000072E16F4009406D077FD08D025D007FC4D
:1056700005D03EF4909581959F4F08957095619562
:105680007F4F0895EE0FFF1F881F8BBF0790F69185
:10569000E02D1994ECD6332312F48A1B9B0B01C026
:1056A000E6D6B7FF0895821B930B0895B7FFD5C6C2
:1056B000D4D6821B930B0895AA1BBB1B51E107C0D4
:1056C000AA1FBB1FA617B70710F0A61BB70B881F92
:1056D000991F5A95A9F780959095BC01CD01089521
:1056E000CF93DF938230910510F482E090E0E09157
:1056F0002E09F0912F0920E030E0C0E0D0E0309793
:1057000011F14081518148175907C0F048175907D6
:1057100061F482819381209719F09B838A832BC047
:1057200090932F0980932E0926C02115310519F079
:105730004217530718F49A01BE01DF01EF010280FE
:10574000F381E02DDCCF2115310509F1281B390B40
:105750002430310590F412968D919C911397611528
:10576000710521F0FB019383828304C090932F097C
:1057700080932E09FD01329644C0FD01E20FF31F14
:1057800081939193225031092D933C933AC02091FB
:105790002C0930912D09232B41F4209106023091E0
:1057A000070230932D0920932C0920910402309197
:1057B00005022115310541F42DB73EB7409108028D
:1057C00050910902241B350BE0912C09F0912D0911
:1057D000E217F307A0F42E1B3F0B2817390778F0C8
:1057E000AC014E5F5F4F2417350748F04E0F5F1F27
:1057F00050932D0940932C098193919302C0E0E0CE
:10580000F0E0CF01DF91CF9108950F931F93CF93D5
:10581000DF93009709F48CC0FC0132971382128247
:1058200000912E0910912F090115110581F4208195
:105830003181820F931F20912C0930912D09281757
:10584000390779F5F0932D09E0932C0971C0D8013F
:1058500040E050E0AE17BF0750F412962D913C91F6
:105860001397AD012115310509F1D901F3CF9D0140
:10587000DA013383228360817181860F971F82173B
:10588000930769F4EC0128813981260F371F2E5FB9
:105890003F4F318320838A819B8193838283452B71
:1058A00029F4F0932F09E0932E0942C01396FC933C
:1058B000EE931297ED01499159919E01240F351FE6
:1058C000E217F30771F480819181840F951F02968E
:1058D00011969C938E938281938113969C938E93C1
:1058E0001297E0E0F0E0D80112968D919C91139709
:1058F000009719F0F8018C01F6CF8D919C919801D9
:105900002E5F3F4F820F931F20912C0930912D095C
:105910002817390769F4309729F410922F0910924B
:105920002E0902C01382128210932D0900932C09B4
:10593000DF91CF911F910F9108956F927F928F9277
:105940009F92AF92BF92CF92DF92EF92FF920F930E
:105950001F93CF93DF93EC01009781F4CB01DF918C
:10596000CF911F910F91FF90EF90DF90CF90BF905C
:10597000AF909F908F907F906F90B2CEFC01E60F1A
:10598000F71F9C0122503109E217F30708F4A8C061
:10599000D9010D911C91119706171707A8F0053032
:1059A000110508F49BC0C80104978617970708F4EF
:1059B00095C002501109061B170B019311936D93AB
:1059C0007C93CF0122DF8AC05B01A01AB10A4C018F
:1059D000800E911EA0912E09B0912F0940E050E059
:1059E000E12CF12C109709F44AC0A815B905D1F59E
:1059F0006D907C901197630182E0C80ED11CCA148F
:105A0000DB0480F1A3014A195B096A0182E0C80E38
:105A1000D11C1296BC9012971396AC91B5E0CB16A0
:105A2000D10440F0B282A38351834083D9016D93A6
:105A30007C930AC00E5F1F4FC301800F911FF901B5
:105A400091838083EB2DFA2FE114F10431F0D7011B
:105A50001396FC93EE93129741C0F0932F09E093B5
:105A60002E093CC08D919C9111974817590708F455
:105A7000AC017D0112960D90BC91A02DB3CF809109
:105A80002C0990912D0988159905E1F446175707BF
:105A9000C8F48091040290910502009741F48DB7FB
:105AA0009EB74091080250910902841B950BE8179C
:105AB000F907B0F4F0932D09E0932C09F9017183F3
:105AC00060830CC0CB010CDE7C01009749F0A8017B
:105AD000BE011BD0CE0199DEC70104C0CE0102C0B9
